:100000000C9434000C9451000C9451000C94510049
:100010000C9451000C9451000C9451000C9451001C
:100020000C9451000C9451000C9451000C9451000C
:100030000C9451000C9451000C9451000C945100FC
:100040000C9451000C9451000C9451000C945100EC
:100050000C9451000C9451000C9451000C945100DC
:100060000C9465000C94510011241FBECFEFD8E012
:10007000DEBFCDBF11E0A0E0B1E0E2E4F6E002C0F7
:1000800005900D92AE31B107D9F722E0AEE1B1E0B3
:1000900001C01D92AB3AB207E1F70E940A030C942B
:1000A0001F030C9400009093210180932001709312
:1000B0001F0160931E010895F894880F8093BA0081
:1000C00085EC8093BC00789408951F920F920FB630
:1000D0000F9211242F933F934F935F936F937F93CE
:1000E0008F939F93AF93BF93EF93FF938091B9004A
:1000F000887F803849F018F4882319F128C0883A9D
:1001000071F0883BA9F023C08091BB00E0912001F1
:10011000F0912101099585EC8093BC001BC0E09112
:100120001E01F0911F01099585EC8093BC0012C05F
:10013000E0911E01F0911F01099585EC8093BC00B0
:1001400009C0ECEBF0E0108285EC808303C085EC05
:100150008093BC00FF91EF91BF91AF919F918F91E0
:100160007F916F915F914F913F912F910F900FBEB3
:100170000F901F90189580932A0180910001909113
:100180000101009731F13BC060912401709125017C
:1001900080912A0190E0022E02C0959587950A94DD
:1001A000E2F781709927F901EE0FFF1FE20FF31FAD
:1001B000EE0FFF1FA0E3A69FA001A79F500D1124E3
:1001C000E40FF51FE55DFE4F918380832F5F3F4F66
:1001D00002C020E030E028303105B4F280912401E3
:1001E0009091250101969093250180932401089711
:1001F00009F05EC010922501109224010895019724
:1002000009F056C032C08091240190912501E091FF
:100210002201F091230140912A0150E0062E02C0F4
:10022000559547950A94E2F741705527DB01AA0FCF
:10023000BB1FA60FB71F9C01220F331F820F931FF6
:100240009C01220F331F220F331F220F331FCD01BA
:10025000820F931FE80FF91FEE0FFF1FE55DFE4FA2
:10026000518340836F5F7F4F02C060E070E0683071
:1002700071054CF280912201909123010196909397
:10028000230180932201039799F410922301109285
:1002900022018091240190912501019690932501DE
:1002A00080932401089721F41092250110922401D3
:1002B0000895089520E030E012C04BB1F901EE0F2F
:1002C000FF1FE85FFE4F81E090E0008002C0880FD2
:1002D000991F0A94E2F7842B8BB92F5F3F4F283088
:1002E00031055CF335B1E6E0F1E081E090E0AC018E
:1002F000008002C0440F551F0A94E2F7242F209576
:10030000232325B925B1008002C0880F991F0A94C4
:10031000E2F7822B85B920E030E012C045B1F90147
:10032000EE0FFF1FE85EFE4F81E090E0008002C00C
:10033000880F991F0A94E2F7842B85B92F5F3F4FEE
:10034000233031055CF340E050E01AC065B1E8E2CB
:10035000F1E081E090E09C01008002C0220F331F99
:100360000A94E2F7262B25B925B1008002C0880F38
:10037000991F0A94E2F78095822385B94F5F5F4FFA
:10038000483051051CF3089560E070E02EC0FA017A
:10039000EE0FFF1FDF01A40FB51FCB01880F991FC0
:1003A000FC01E60FF71FEE0FFF1FEE0FFF1FEE0F12
:1003B000FF1FEA0FFB1FE20FF31FEE0FFF1FE55DAC
:1003C000FE4F118210822F5F3F4F02C020E030E0CD
:1003D00023303105E4F24F5F5F4F02C040E050E050
:1003E000483051059CF36F5F7F4F68307105B4F35F
:1003F000089580912601909127018730910571F42D
:1004000025B181E090E00090180102C0880F991F8B
:100410000A94E2F78095822385B920C08F30910538
:1004200071F425B181E090E000901A0102C0880FBC
:10043000991F0A94E2F78095822385B90FC04797E8
:1004400069F425B181E090E000901C0102C0880FA2
:10045000991F0A94E2F78095822385B945B1E8E2B5
:10046000F1E081E090E09C01008002C0220F331F88
:100470000A94E2F7242B25B925B1008002C0880F29
:10048000991F0A94E2F78095822385B920E030E035
:1004900012C045B1F901EE0FFF1FE85EFE4F81E08B
:1004A00090E0008002C0880F991F0A94E2F7842B25
:1004B00085B92F5F3F4F233031055CF380912601D2
:1004C00090912701019690932701809326014897E8
:1004D00021F410922701109226018091040190913D
:1004E000050101969093050180930401039799F407
:1004F0001092050110920401809102019091030174
:1005000001969093030180930201089721F41092C1
:10051000030110920201089520E030E013C04BB1B6
:10052000F901EE0FFF1FE85FFE4F81E090E00080D1
:1005300002C0880F991F0A94E2F7809584238BB933
:100540002F5F3F4F2830310554F3089520E030E00D
:1005500048C0E0910201F0910301CF01880F991F7B
:10056000E80FF91FC901880F991F820F931F880F89
:10057000991F880F991F880F991FE80FF91F809105
:10058000040190910501E80FF91FEE0FFF1FE55DD3
:10059000FE4F80819181892B89F04BB1F901EE0FDB
:1005A000FF1FE85FFE4F81E090E0008002C0880FEF
:1005B000991F0A94E2F7842B8BB911C04BB1F90152
:1005C000EE0FFF1FE85FFE4F81E090E0008002C069
:1005D000880F991F0A94E2F7809584238BB92F5FC7
:1005E0003F4F283031050CF4B4CF089569E571E030
:1005F0008BEB90E00E94530080E10E945C008FEF43
:1006000084B917B88AB988B1806188B988B1806225
:1006100088B908950E94F6020E945A010E94C401FE
:1006200081E090E090932C0180932B01F8940E943C
:100630008C020E94F9010E94A6027894F7CFF894E8
:02064000FFCFEA
:10064200010005000100010000000100020003009A
:0E06520004000500060007000400030002007B
:00000001FF
